:020000040800F2
:10000000A0060020A9010008B1010008B301000802
:10001000B5010008B7010008B901000800000000A0
:10002000000000000000000000000000BB0100080C
:10003000BD01000800000000BF010008F91A000817
:10004000C3010008C3010008C3010008C301000880
:10005000C3010008C3010008C3010008C301000870
:10006000C3010008C3010008C3010008C301000860
:10007000C3010008C3010008C3010008C301000850
:10008000C3010008C301000875130008C30100087C
:10009000C3010008C3010008C3010008C301000830
:1000A000C3010008C3010008C3010008C301000820
:1000B000A11B0008C3010008C3010008C301000818
:1000C000C3010008C3010008C3010008C301000800
:1000D000C3010008C3010008C3010008C3010008F0
:1000E000C3010008C3010008C301000800F002F8C2
:1000F00000F04AF80AA090E8000C82448344AAF178
:100100000107DA4501D100F03FF8AFF2090EBAE875
:100110000F0013F0010F18BFFB1A43F0010318473B
:10012000542B0000742B0000103A24BF78C878C10B
:10013000FAD8520724BF30C830C144BF04680C60ED
:10014000704700000023002400250026103A28BF35
:1001500078C1FBD8520728BF30C148BF0B60704739
:10016000662902F03B85642900F07A800020704700
:100170001FB500F0C1FB04000020002102F03AF896
:10018000E0601FBD10B510BD00F0B6FC1146FFF7D2
:10019000EFFF01F04FFD00F0D4FC03B4FFF7F2FFD6
:1001A00003BC00F017FD00000948804709480047DC
:1001B000FEE7FEE7FEE7FEE7FEE7FEE7FEE7FEE717
:1001C000FEE7FEE704480549054A064B7047000074
:1001D000411B0008ED000008A0000020A006002040
:1001E000A0020020A00200200FB41CB5074B06AAF5
:1001F0007B4469460090059800F065FB0020694645
:1002000000F074FB1CBC5DF814FB0000F906000054
:1002100070B5044685690068C10601D5302600E046
:100220002026C00707D070BDD4E901213046904791
:10023000206A401C20626D1EF6D570BD70B5044664
:1002400085690078C00707D170BDD4E9012120205D
:100250009047206A401C20626D1EF6D570BD0000DC
:100260002DE9F0410646002410687529314616A58F
:1002700010D0AFF30080002802DA404213A507E057
:1002800031688A0701D512A502E0490704D511A5F6
:10029000012401E0AFF3008000210A2206F12407C7
:1002A00009E0B0FBF2FCB0FBF2F302FB1C003030C3
:1002B00078541846491C0028F3D123462A46304674
:1002C000BDE8F04100F092B8000000002D000000F1
:1002D0002B000000200000002DE9F0474FF0000A3D
:1002E00089460446C0F820A02046E16888470028D7
:1002F00076D0252806D0D4E901219047206A401CF9
:100300002062F1E7E168204600258847C4F81CA078
:1003100006460027C4F818A02A2E09D0304601F05E
:1003200065FC38B304EB8708303EC8F8186019E064
:1003300059F8041B204604EB87029161E168884765
:10034000012F064618D1E069002820DA25F02005A3
:100350001DE0D8F8180000EB800006EB40003038B4
:10036000C8F818002046E1688847064601F03EFCC0
:100370000028EED1012F0AD02E2E08D12046E168A8
:1003800088477F1C0646022F45F02005C4DBA06984
:10039000002803DA404245F00105A061E80701D0DA
:1003A00025F01005B6B1A6F14100192802D8203673
:1003B00045F400654A463146204625604D46FFF724
:1003C000CFFE58B1012806D0ED1D25F0070000F141
:1003D000080989E704E005F1040985E730468AE762
:1003E000206ABDE8F0877047704770472DE9F047F5
:1003F0000D4699469246044600F124080168880695
:1004000004D5E06921F01001216000E00120A8423C
:1004100001DD471B00E00027A1697A1902EB090002
:10042000081AA0612078C00602D42046FFF7F0FE2B
:10043000002608E0D4E901211AF806009047206A56
:10044000401C761C20624E45F4DB2078C0060AD59D
:100450002046FFF7DDFE06E0D4E901213020904779
:10046000206A401C2062381EA7F10107F4DC07E077
:10047000D4E9012118F805009047206A401C206249
:10048000281EA5F10105F3DC2046FFF7D7FE2078F2
:10049000000602D50220BDE8F0870120FBE7704787
:1004A0002DE9FF4F0C461E464FF0FF378BB0D2E9C7
:1004B0000001DDF860800A908A46C1F30A5505B94B
:1004C0003D46002108464FF00000BAF1000F00F44D
:1004D000400005DA00EB80004FF4400101EA5000D3
:1004E0004FEA9059B9F1010F00DDB9460A9850EA78
:1004F0004A000ED044F61050A5F2FF3545432F14A4
:10050000B8F1000F1ED07542291E1EDDC9F1000290
:100510001CE0B8F1010F4FF0000001D0302103E0E2
:10052000F24305E02154401CB042FBDB3046002280
:10053000002121540B99C1F80880C1E900200FB0B7
:10054000BDE8F08FBD1B6D1CDEE74A4600DA69424C
:1005500006A800F05BFA06AB93E8070003AB83E85C
:10056000070050460A9900F03CFB8DE80700A0F513
:1005700000501F3800900398002D0ADD42F21F0141
:100580004A460844002303A90390684600F0A5FDED
:1005900009E0A0F500504A461F38002303A9039044
:1005A000684600F0AFFD8DE807000004000C03D0A2
:1005B0004FF0FF30410800E01046B8F1000F03D0C3
:1005C0000022009215461EE0751E05D400F098F931
:1005D000303262556D1EF9D5B3460122084302D070
:1005E00000227F1C04E02078302801D100227F1EE9
:1005F000002A099784D01DE0112D07DA00F080F958
:10060000303262556D1C50EA0102F5D1084302D028
:100610000098C8B10EE00021681E05E0235C625C12
:1006200063542254401E491C8142F7DBAB46A81B91
:10063000401E0990002004F80B000B98099AC0F89E
:100640000880C0E9002B7AE711264FF0000857E731
:100650002DE9F04F88460446D21D22F0070191B0E3
:10066000D1E90001CDE90A0101F0ACFA02460B988C
:10067000C00F01D02D2007E02068810701D52B2075
:1006800002E0202101EAC000032A099001D0072AD4
:1006900005DB03464146204600F078F90BE120785F
:1006A000800601D5E06900E00620B8F1650F8146BB
:1006B00006D0B8F1660F18D0B8F1670F70D131E0ED
:1006C0000020B9F1110F009001DB112301E009F1C5
:1006D00001030AAA01A90CA8FFF7E2FEDDE90C70EC
:1006E000002609F10105834647E001204B460090B2
:1006F0004FF000470AAA01A90CA8FFF7D1FEDDE9D7
:100700000DB00C995D46002610B909F101000D18D5
:10071000B9EB050003D4C0F1FF3609F10105A5EBE3
:1007200009002BE0B9F1010F01DA4FF001090020B7
:10073000B9F1110F0090484601DD112300E0034696
:100740000AAA01A90CA8FFF7ABFEDDE90C704D4623
:1007500000268346207800070AD4AB4500DA5D46C0
:1007600001A8012D04DD411911F8011C302907D021
:100770004F4502DA17F1040F04DA012082460FE038
:100780006D1EEEE7002F02DCED1B3E4403E0781CFB
:10079000A84200DD7D1CB81B00F1010A4FF00047A4
:1007A0002078000703D4AA4501DB4FF0FF3A00216F
:1007B000B7F1004F0DF143088DF8431024D002200B
:1007C0002B23002F01DA7F422D230A21021EA0F1E4
:1007D000010000DC5FB197FBF1FC97FBF1F201FB3C
:1007E0001C7C17460CF1300C08F801CDEEE7A8F19F
:1007F000010003702188090501D5452100E065212C
:10080000A0F1010800F8011C09980FA9A1EB080745
:10081000FF1D00B10120411901EBEA70A1693844C4
:10082000081A401EA0612078C00602D42046FFF7B7
:10083000EFFC099828B1D4E901219047206A401CB7
:1008400020622078C00622D52046FFF7E1FC1EE09A
:10085000002E04DBB34502DD01A8805D00E03020FE
:10086000D4E901219047206A401C2062761CAAF13D
:1008700001005FEA000A0AD100F03EF8C068016892
:10088000405CD4E901219047206A401C2062281E68
:10089000A5F10105DCDC07E0D4E9012118F8010B22
:1008A0009047206A401C2062381EA7F10107F3DC44
:1008B0002046FFF7C3FC032011B041E601694A1C42
:1008C00002610878704700B58FB0CDE90131002191
:1008D000059105497944CDE9031011466846FFF7B3
:1008E000FBFC0FB000BD0000E5FFFFFF0A6802F847
:1008F000010B0A6070470000004870475C00002050
:1009000030B5B0F10A024FEA900E71F100034EEAE1
:10091000817EB0EB0E0061EB91014FEA101E4EEAB2
:10092000017E10EB0E0041EB11114FEA102E4EEA42
:10093000016E10EB0E0041EB11214FEA104E4EEA12
:10094000014E10EB0E0041EB1141401841F1000146
:100950004FEAD00040EA41704FEAD10110EB800528
:100960004FEA810444EA907444EB01046D1944EBAE
:100970000404521BA3414FF0000348BF0A3200D5C4
:1009800030BD401C41F1000130BD00002DE9F041B7
:100990001F46044603260168072A01F4006004DBB1
:1009A00008B116A505E016A503E008B115A500E0FD
:1009B00015A521F010002060A069C01EA0610FB134
:1009C000401EA0612046FFF723FC4FB1D4E901216E
:1009D00038469047206A401C2062C01C206206E016
:1009E000206AFAE7D4E9012115F8010B9047761E39
:1009F000F8D22046FFF722FCBDE8F0814E414E00C0
:100A00006E616E00494E4600696E66002DE9F04742
:100A1000814616468AB0354878440DC88DE80D00E9
:100A200032487844801C03AC0DC884E80D0041F6C0
:100A30009B300844372190FBF1F290FBF1F5A5F1D2
:100A4000800501FB12041B3C02D56442012000E03A
:100A50000020DFF898A080460027FA44AAF1BE0AD9
:100A60000EE0E0070AD03246684607EB4701012353
:100A70000AEB810100F046FB8DE8070064107F1C43
:100A8000002CEED1194F7F44AE3F19E0E80715D096
:100A900007EB04100DF1180A90E80E008AE80E002A
:100AA000C068F04201D1981908903246012306A986
:100AB00003A800F027FB03AB83E807006D10641C5C
:100AC000002DE3D14FF0010332466946B8F1000F23
:100AD00003A802D000F001FB01E000F013FBC9E91C
:100AE0000001C9F808200AB0BDE8F08740220000E4
:100AF000004870473C0000207546FFF7F9FFAE46FE
:100B000005006946534620F00700854618B020B519
:100B1000FFF758FBBDE820404FF000064FF00007FC
:100B20004FF000084FF0000B21F00701AC46ACE895
:100B3000C009ACE8C009ACE8C009ACE8C0098D4602
:100B4000704710B50446AFF300802046BDE8104062
:100B5000FFF723BB4FF0013C50F8042B51F8043B46
:100B60009A4221D1A2EB0C03934313EACC1317D181
:100B700050F8042B51F8043B9A4215D1A2EB0C0318
:100B8000934313EACC130BD150F8042B51F8043BD8
:100B90009A4209D1A2EB0C03934313EACC13DBD0A6
:100BA0004FF00000704700BFD01A01BAB1FA81F1CE
:100BB00001F0180122FA01F0CB40C1F12001DBB2B3
:100BC000C0B2C01A2CFA01F3D11A914311EAC31131
:100BD000E6D1704701491820ABBEFEE726000200AF
:100BE00070475FEA400C08BF91F0000F4FEA8C237A
:100BF0004FEAC12243EA51514FEA1C5018BF00F599
:100C0000F0404FEA300018BF41F000415FEA6C5CF1
:100C100000F02980BCF1FF3F08BF40F080407047E2
:100C2000130C06BF12044FF0100C4FF0000C130E03
:100C300004BF12020CF1080C130F04BF12010CF1D7
:100C4000040C930F04BF92000CF1020CD30F04BFED
:100C500052000CF1010C11464FF00002A0F11F00F0
:100C6000A0EB0C00704711F0004F08BF704731F047
:100C700000413FF4D5AF0B0C06BF09044FF0100C38
:100C80004FF0000C0B0E04BF09020CF1080C0B0F07
:100C900004BF09010CF1040C8B0F04BF89000CF197
:100CA000020CCB0F04BF49000CF1010CCCF1200366
:100CB000A0EB0C0022FA03F302FA0CF241EA030162
:100CC00000F10100704720F07F4C80EA030023F020
:100CD0007F47ACEB070303F57C5300F0004003F1C2
:100CE000FF032DE980494FEA154B09B44FEA14433D
:100CF00025EA0B4E24EA03480FF2042606EB1327DD
:100D000049083E785FEA320203FB0667C7F5000731
:100D100007FB06F64FEA54374FEAD64606F10206BD
:100D200007FB066CCCF1005C4FEA1C472CEA074C31
:100D300007FB06F40CFB06F504EB15464FEA961686
:100D400034BF00204FF000404FEAD13706FB07FCCC
:100D50004FEA1C4C0CFB0BF7D21B03FB0CF761EBAF
:100D600007010CFB0EF7B0EB074072EB17420CFBD0
:100D700008F734BFA2EB0742B2EB074261EB174121
:100D80004FEA0C444FEA910706FB07FC4FEA1C4C64
:100D90000CFB0BF7B0EBC74072EB573203FB0CF7C1
:100DA00034BFA2EBC742B2EBC74261EB57310CFB39
:100DB0000EF7B0EBC70072EB57720CFB08F734BFAD
:100DC000A2EBC702B2EBC70261EB5771039F4FEA78
:100DD000816141EA921104EBCC044FEAD1374FEA2A
:100DE000826206FB07FC42EA90124FEA80604FEAFB
:100DF0001C4C0CFB0BF7D21B03FB0CF761EB070140
:100E00000CFB0EF7B0EB074072EB17420CFB08F738
:100E100034BFA2EB0742B2EB074261EB17414FEA46
:100E20008C554FEA910704EB9C2406FB07FC4FEA24
:100E30001C4C0CFB0BF7B0EBC74072EB573203FBBB
:100E40000CF734BFA2EBC742B2EBC74261EB57319C
:100E50000CFB0EF7B0EBC70072EB57720CFB08F7F8
:100E600034BFA2EBC702B2EBC70261EB577115EBBF
:100E70004C254FEA816141EA92114FEA82624FEAC2
:100E8000D13742EA901206FB07FC44F100044FEA16
:100E900080604FEA1C4C0CFB0BF7D21B03FB0CF7DA
:100EA00061EB07010CFB0EF7B0EB074072EB17424A
:100EB0000CFB08F734BFA2EB0742B2EB074261EB31
:100EC000174115EB1C154FEA813141EA92414FEA77
:100ED000823242EA90424FEA80304FEA0C7644F187
:100EE000000448EA03434EEA0B484FF0000EB2EB11
:100EF000080C71EB030724BF624639464EEB0E0E19
:100F00004FF0000B0018524149414BEB0B0BB2EB79
:100F1000080C71EB03077BF1000B24BF62463946D6
:100F20004EEB0E0E4FF0000B0018524149414BEBB7
:100F30000B0BB2EB080C71EB03077BF1000B24BF2A
:100F4000624639464EEB0E0E51EA020718BF46F0D4
:100F5000010616EB0E7655F1000254F1000103D59F
:100F6000BDE88901BDE80088BDE88901BDE8004809
:100F7000B619524141EB0101A3F101037047808092
:100F80007F7E7D7C7B7A79787776767574737271E3
:100F900071706F6E6E6D6C6C6B6A6A69686867669B
:100FA00066656464636362616160605F5F5E5E5D2D
:100FB0005D5C5C5B5B5A5A595958585757565655A1
:100FC00055555454535352525251515050504F4F03
:100FD0004F4E4E4D4D4D4C4C4C4B4B4B4A4A4A4953
:100FE0004949484848474747474646464545454496
:100FF0004444444343434342424242414141002B23
:101000009C4630D477002BD01CB54FEA370703B489
:101010004FF010004FF01001BAF1000F06D0BCF1F4
:10102000000FDCBF40F0080040F008014FF0000066
:101030000FBCBDE810400BF1010BBBF1010F08BF65
:101040005FEA170722BF12F1010211F101014FF00F
:10105000004143F1000300F0004043EA0000704704
:10106000F9D35708D0E746EA064613F1400F4FEA96
:1010700016461FDD13F1200FDFBF16430A4600217D
:1010800020335B42BED0C3F1200746EA064602FA8F
:1010900007F74FEA164646EA0706C3F1200722FA89
:1010A00003F201FA07F721FA03F14FF0000342EAD5
:1010B0000702A7E746EA020646EA06464FEA164650
:1010C00046EA0106BCBF46EA0646360C4FF000036E
:1010D0004FF000024FF0000194E72DE9804C9A4652
:1010E000934670B491E8380007C831EA400C48BF15
:1010F00034EA430C03D5FFF7E6FDFFF780FFF0BCB1
:10110000BDE8008C2DE9804C9A46934670B491E876
:10111000380007C810F0804F08BF13F0804F03D18C
:1011200000F005F8FFF76BFFF0BCBDE8008C20F085
:101130007F4780EA030023F07F4C07EB0C03A3F505
:101140007C5300F00040A3F1FE0392F0000F00F08A
:10115000B38095F0000F00F077802DE901494FEA48
:1011600011404FEA144621EA004800FB06FC24EA3D
:10117000064708FB06F607FB08F800FB07F718EB25
:1011800006484CEB164C4FEA124B18EB07484FEA57
:1011900015464CEB174022EA0B4E0BFB06FC25EAEA
:1011A00006470EFB06F607FB0EFE0BFB07F71EEBD2
:1011B000064E4CEB164C4FF000061EEB074E4CEB68
:1011C000174B18EB0B0840F1000018EB0E0B58EB17
:1011D000000840F100008F1A4FF000013CBFC943E6
:1011E000661B14BFB5EB040C00213CBFC943F61BC2
:1011F0004FEA17444EEA8E0E27EA04454FEA1C4791
:1012000004FB07622CEA074C05FB07F70CFB05F60D
:1012100004FB0CFC16EB074642EB174216EB0C46A0
:1012200042EB1C421BEB060658EB0202414146EA28
:101230009E0601D5BDE80189B619524141EB010175
:10124000A3F10103BDE801894FEA14454FEA1147B4
:1012500024EA054621EA074C05FB07F406FB07F7DD
:101260000CFB06F105FB0CFC11EB074144EB1744AA
:101270004FEA124711EB0C4144EB1C4422EA074CA5
:1012800005FB07F206FB07F70CFB06F605FB0CFC5B
:1012900016EB074642EB174216EB0C4642EB1C4599
:1012A0006A1854F1000148BF7047B619524141EB2A
:1012B0000101A3F10103704795F0000F37D04FEA09
:1012C00011424FEA144721EA024624EA074C02FB86
:1012D00007F106FB07F70CFB06F402FB0CFC14EB12
:1012E000074441EB17414FEA154714EB0C4441EB1F
:1012F0001C4125EA074C02FB07F506FB07F70CFB30
:1013000006F602FB0CFC16EB074645EB174516EB01
:101310000C4645EB1C42121951F1000148BF7047C1
:10132000B619524141EB0101A3F1010370474FEAA5
:1013300014454FEA114724EA054621EA074C05FB0C
:1013400007F106FB07F70CFB06F24FF0000605FB62
:101350000CFC12EB074241EB174112EB0C4251EB34
:101360001C4148BF7047921841EB0101A3F10103F2
:10137000704700000648006820F004000449086037
:101380000448C06880F400500249C86070470000FB
:1013900000240140001001405248006840F48020C1
:1013A0004FF0E021C1F800014F48806940F004008F
:1013B0004D4988610846806940F40070886108469C
:1013C000406840F4404048604848006820F440606D
:1013D000464908600846006820F440400860084616
:1013E000006820F440200860002041490860081D82
:1013F000006840F00400091D086000BF3C48001D63
:10140000006800F004000028F8D03948001D00688A
:1014100040F002003649091D08600846006840F4A3
:10142000E04008600846006840F4004008604FF45F
:10143000602008600846006840F480100860084694
:10144000006840F00200086004202949303108603B
:101450002748001D006840F001002549091D08606B
:101460000846006840F480000860081F006840F0EB
:101470008000091F08600846006840F4806008602A
:101480000846006840F48070086019480C30006815
:1014900040F4C07016490C3108600846006840F4FA
:1014A0008060086012483430006840F480101049B1
:1014B000343108600846006840F40060086008465F
:1014C000006840F4C03008600948001D006840F022
:1014D00001000749091D08600846006840F4001033
:1014E0000860704700E100E0001002400008014081
:1014F0000424014001B5094800680949B0FBF1F036
:101500000921B0FBF1F000994843009000BF00981A
:10151000411E00910028FAD108BD000014000020EF
:1015200040420F002B48806940F00400294988613F
:101530000846C06940F00200C8610846806940F072
:10154000010088612448006840F008402249086092
:1015500043202249088021481438008840F00100C7
:101560001E49143908800846008840F4007008803D
:101570000846008843F230010843184914390880AE
:1015800016480C38008820F0220014490C390880D5
:1015900012482438008840F003001049243908809C
:1015A0000E482C38008840F001000C492C39088086
:1015B0000948006820F4700040F400000649086003
:1015C00005480C30006820F0200003490C31086009
:1015D0007047000000100240000801402C04004049
:1015E0003848806940F0080036498861364800680C
:1015F00040F07F40344908603248C06940F4001030
:101600003049C8610846C06900F400102F490860DD
:101610002F48008820F001002D4908802C480C3804
:10162000008820F040002A490C39088008460088CC
:1016300020F0800008800846008820F00100088023
:10164000081D008820F03F0040F02400091D08809C
:101650001F481430008820F03F0040F00B001C4968
:1016600014310880081F00884CF6FF71884348F247
:101670001E0108441649103108801548001F0088D3
:1016800048F2FF31884340F480401149091F088027
:101690000F480C38008820F01A000D490C390880DA
:1016A0000846008840F0010008800846008840F4A1
:1016B000806008800648008820F0FE000449088009
:1016C0007047000000100240000C01400C00002098
:1016D0000C540040038823F400630380038843F420
:1016E00080630380038843F48073038000BF838A90
:1016F00003F00103002BFAD0838A038A23F0FF034F
:101700001343038200BF838A03F00203002BFAD045
:10171000838A038B038A23F0FF030B43038200BFFA
:10172000838A03F08003002BFAD0038843F400730C
:101730000380704710B50021012000F0FDFC02205D
:1017400000F05CFA10BD70B504460D4615B1012DD0
:101750000FD105E044F08000002100F0EDFC08E02E
:1017600004F14001C9B241F08000002100F0E4FC26
:1017700000BF00BF70BD70B50446002505E0605D88
:10178000012100F0D9FC681CC5B2605D0028F6D1CB
:1017900070BD000010B504464E2221460148FFF7F7
:1017A00099FF10BD0054004010B5322000F026FA19
:1017B0000020FFF7EFFF2849097821F00201264AAF
:1017C00011700846FFF7E6FF642000F017FA0320C7
:1017D00000F0D4FC41F29410FFF78CFE032000F0DF
:1017E000CDFC41F29410FFF785FE032000F0C6FC0B
:1017F000C820FFF77FFE022000F0C0FC0021282057
:1018000000F09AFC0021082000F096FC012000F076
:10181000F5F90021012000F08FFC022000F0EEF924
:101820000021062000F088FC012000F0E7F90021EB
:101830000C2000F081FC0021022000F07DFC022041
:1018400000F0DCF90449097841F00801024A1170FE
:101850000846FFF79FFF10BD110000200C48C0692B
:1018600020F001000A49C8610A48006820F00C0015
:10187000084908600846006820F0C0000860054874
:101880001030006840F44030024910310860704761
:1018900000100240000801403048806940F0040018
:1018A0002E4988610846C06940F00100C8612C4893
:1018B000006820F00C002A4908600846006840F0E3
:1018C000880008600846006840F033000860C804DB
:1018D000008840F04000C90408800846008B40F0B2
:1018E000600008830846008B40F4E0400883084607
:1018F000008C40F0110008841C2000280DDB00BF84
:1019000000BF00F01F02012191404209920002F144
:10191000E022C2F8001100BF00BF00BF4FF08040BE
:10192000808940F002004FF0804188810846008A9B
:1019300020F0020008820846008A20F00100088298
:1019400040F60F6008854FF6E850888542F20F7028
:10195000888644F637200887704700000010024050
:101960000008014010B500F057F810BD2848006885
:1019700040F480302649086000BF254800680020F8
:101980000028FAD12348006820F01000214908609F
:101990000846006840F0100008600846006820F023
:1019A0000300801C08601A48406820F0F0001849C5
:1019B00048600846406820F4605048600846406827
:1019C00020F4E06040F4806048600846406820F4FD
:1019D0007C1040F4E81048600846006840F08070D1
:1019E000086000BF0A48006800F00070B0F1007F96
:1019F000F8D10748406820F00300801C0449486083
:101A000000BF0348406800F00C000828F9D1704777
:101A100000100240002002400CB500200190009010
:101A20003348006840F480303149086000BF3048D6
:101A3000006800F4003000900198401C019000986C
:101A400018B90198B0F5A06FF1D12948006800F4E9
:101A5000003010B10120009001E0002000900098BB
:101A6000012843D12348006840F010002149086054
:101A70000846006820F0030008600846006840F04F
:101A8000020008601A4840681949486008464068E2
:101A900048600846406840F48060486008464068F6
:101AA00020F47C1048600846406840F4E810486024
:101AB0000846006840F08070086000BF0C4800686D
:101AC00000F000700028F9D00948406820F00300B9
:101AD000074948600846406840F00200486000BF7F
:101AE0000348406800F00C000828F9D10CBD000044
:101AF00000100240002002400448006820B1034862
:101B00000068401E01490860704700000400002082
:101B10004FF0E020406900F07F40084908434FF053
:101B2000E02148610846806900F07F4088610846EE
:101B3000006940F007000861704700003F1901008C
:101B400010B51348006840F00100114908600846CC
:101B50004068104908400E494860084600680E4930
:101B600008400B4908600846006820F4802008609F
:101B70000846406820F4FE0048604FF41F0088606B
:101B8000FFF7F0FE4FF000600449086010BD000050
:101B9000001002400000FFF8FFFFF6FE08ED00E035
:101BA0004FF08040008A20F002004FF08041088210
:101BB0000348C06880F400500149C86070470000C5
:101BC00000100140490050EAC12018BF04204A0D0E
:101BD00018BF40F0010040F2FF72B2EB515F08BF46
:101BE00040F00200012808BF0520704730380A285D
:101BF00001D20120704700207047000000B5024666
:101C0000FFF7B4FEFFF784FF4FF0E020806900F09B
:101C10007F40064908434FF0E02188610448026094
:101C200000BF034800680028FBD100BD3F19010038
:101C300004000020F948806940F01000F7498861ED
:101C4000F748406840F40010F5494860084640688D
:101C500020F4400048600846006940F000500861E8
:101C6000FFF7BEFCFFF7A0FDFFF796FBFFF75AFC5E
:101C7000EC48006840F40010EA49086000210120A7
:101C8000FFF761FDE8A0FFF776FD01210846FFF7A9
:101C90005AFDE9A0FFF76FFD40F6B830FFF7AEFF41
:101CA000FFF748FD1DE05320E7490880E649083961
:101CB0000888C11700EB9171891001EB8101E34A9B
:101CC000117000210320FFF73EFDE0480278E0A1FB
:101CD000E248FEF789FAE148FFF74DFD1E20FFF7C5
:101CE0008DFFDF48006800F020000028DBD193E181
:101CF000FFF720FDCB484430006840F233118842A2
:101D000001D9012000E00020C6494431096840F6AD
:101D10006662914201D2012100E0002108400028C2
:101D200073D000210846FFF70EFDCEA0FFF723FD7C
:101D300026E14FF08040008800F0010008B9FFF76D
:101D4000ABFDB84844300068B0F5586F01D30120AE
:101D500000E00020B3494431096840F666629142D0
:101D600001D2012100E000210840C0B1B74800784D
:101D70004FF6E8514843C00040F2CF3190FBF1F9F3
:101D8000B24800784FF6E851484341F6786190FB3D
:101D9000F1F44FF08041A1F834900C87B0E0A148F5
:101DA00044300068B0F5506F01D3012000E00020FE
:101DB0009C494431096840F67F52914201D2012189
:101DC00000E00021084008B3A04800784FF6E85131
:101DD0004843782190FBF1F99C4800784FF6E85190
:101DE00048434FF4965190FBF1FA504600F0FBFA4D
:101DF000074600F057F9054600F0C6FA04464FF0D2
:101E00008041A1F834900C877AE0D2E085484430D4
:101E10000068B0F5486F01D3012000E0002081493F
:101E20004431096840F6FF42914201D2012100E0AD
:101E300000210840C0B1854800784FF6E85148437A
:101E4000800040F2DB1190FBF1F9804800784FF6FA
:101E5000E851484340F6D86190FBF1F44FF08041DF
:101E6000A1F834900C874BE06E4844300068B0F520
:101E7000406F01D3012000E000206A494431096825
:101E800040F67F42914201D2012100E0002108404A
:101E9000C8B16E4800784FF6E851484300EB400067
:101EA0004FF4AF7190FBF1F9684800784FF6E851B4
:101EB00048434FF42F6190FBF1F44FF08041A1F8BB
:101EC00034900C871CE057484430006840F6FF31DE
:101ED000884215D25D4800784FF6E85148434000EB
:101EE000E12190FBF1F9594800784FF6E851484359
:101EF0004FF4E16190FBF1F4C906A1F834900C872E
:101F00004FF08040008800F0010038B94FF0804069
:101F1000008840F001004FF0804108800021092036
:101F2000FFF711FC3F494431086800F077FD824615
:101F30004F4900F0B1FC05464FF0834100F082FDAF
:101F4000804600F07DFC064632460B4649A14348D8
:101F5000FEF74AF94148FFF70EFC01210020FFF788
:101F6000F2FB4FF08040838E028F44A14548FEF77C
:101F70003BF94448FFF7FFFB6420FFF73FFE00BF3B
:101F800028484430006840F23311884201D90120CA
:101F900000E0002023494431096840F6666291421E
:101FA00001D2012100E00021084000287FF4C1AEE9
:101FB0002FE01C4844300068B0F5997F11D84FF0ED
:101FC0008040008820F001004FF080410880FFF73A
:101FD00045FC00210846FFF7B6FB2BA0FFF7CBFB23
:101FE00017E010484430006840F6CE61884210D9AE
:101FF0004FF08040008820F001004FF080410880C1
:10200000FFF72CFC00210846FFF79DFB21A0FFF7FE
:10201000B2FBB920FFF7F2FD6AE6000000100240B3
:102020000010014008240140436861726765722016
:102030003132562050622000562E303120646172B9
:102040006B776564657200002C0400400800002076
:1020500053656C6563742025644168002800002086
:10206000080801404368617267696E6700000000FC
:1020700000F07F4525342E32665600002564202569
:1020800064000000320000204E6F7420626174749E
:102090006572790077726F6E672062617474657221
:1020A000790000002DE9F04D07460E4600F078FA61
:1020B00004460D463A46334600F0CCFADFF86CA0F1
:1020C000DFF86CB01B4B0746884616F0004F4FF008
:1020D00000020AD000F09EF90AD900225B46384679
:1020E000414600F027FA1BD212E000F093F908D223
:1020F000002253462046294600F0B8FA04460D4611
:102100000EE000225B463846414600F013FA07D83D
:10211000002253462046294600F082F804460D4628
:102120003146204665F31E01BDE8F08D0000F03F0A
:102130000000E03F0000E0BF70B504460D464DB919
:102140000D49097821F001010B4A11700846FFF78B
:1021500021FB08E00849097841F00101064A1170A5
:102160000846FFF717FB00262611304600F006F858
:10217000204600F003F870BD1100002038B5044679
:102180002007040E1849097841EA0400FFF702FB12
:102190001549097841F00401134A117041EA04001D
:1021A000FFF7F8FAC8200090104800681049B0FB0B
:1021B000F1F00099484342F22831B0FBF1F0009071
:1021C00000BF00BF0098411E00910028FAD100BF57
:1021D0000549097821F00401034A117041EA04001D
:1021E000FFF7D8FA38BD00001100002014000020CD
:1021F00040420F0010B500290AD00878002807D007
:1022000005487844FEF7A6FC002801D0002010BD48
:102210000248784410BD0000920A00008A0A0000BB
:1022200010B591EA030F48BF83F0004300F1268206
:10223000841A71EB030C05D2121943EB0C03001B3B
:1022400061EB0C01DFF824E14FEA1154A4EB135CBD
:102250001EEA430F18BF9EEA445F73D023EA0E03C1
:10226000DCF1200E21EA045143F4801332D322FA28
:102270000CFE10EB0E0023FA0CFE41EB0E01CCF12C
:10228000200E03FA0EFE10EB0E0051F10001B1F525
:10229000801FCCF1200E32D201EB045112FA0EF263
:1022A000BDE8104058BF7047401C38BF5FEA42028B
:1022B00018BF7047002814BF20F0010041F1000151
:1022C0004FEA410313F5001F38BF7047A1F1C04129
:1022D00000F02AB9012A43EB0302ACF1200CDCF137
:1022E0001F0E32BF4FF0000E23FA0CF310EB030069
:1022F00041EB0451B4EB115FD0D0A1EB045101F5D7
:10230000801149085FEA300001EB04510ED350F10F
:10231000000038BF12FA0EFE08D1BDE81040C9E730
:10232000401C38BF5FEA4202CAD1C3E7BDE8104093
:102330004FEA410313F5001F38BF7047A1F1C041B8
:1023400000F0F2B89EEA445F08D011EA5E0FBDE8E3
:10235000104004BF01F0004100207047BDE810406C
:1023600070B500F093F800BF64FBBE3E0000E0FFD4
:10237000491058BFC1F140415B1058BFC3F1404301
:102380008B42EFF3008070474FEA41034FEA53530B
:10239000A3F58063D3F11E03C8BFD3F1210C0CDD7C
:1023A0004FF0004242EAC12242EA505232FA03FCA4
:1023B0008CEAE17CACEBE1707047102BC4BF0020CD
:1023C000704703F5787CBCF1FF3F04D06FF000420A
:1023D00082EA2100704770B500F058F849922480D5
:1023E00000207047F2E710F0004248BF4042B0FAC8
:1023F00080F310FA03F10AD0C3F11D0303F58063E3
:102400004FEA415002EB035202EBD12170474FF0EB
:102410000000704751EA030C17D41CF5801F58BF09
:10242000BCF5801F00F10680994218BF704708BFB5
:102430009042704707D711F5801F58BF13F5801FD2
:1024400019D499427047894270471CF5801F08D5FE
:10245000BCF5801FF7D58B4218BF704708BF82427A
:1024600070474FF4001C1CEB410F38BF1CEB430FAF
:1024700001D28B42704770B500F008F892244900F1
:102480004FF000514FF08053FFF772BF0EF1020E74
:102490002EF0030E5EF8046B364205D4012A43EB9E
:1024A000030515F5001F12D8012841EB010C1CF59E
:1024B000001F0CD80ED14FEAD17C15F5001F0CEB94
:1024C0004C0C0CF1020C08BF4CEBD37C04E04FF039
:1024D000080C01E04FEAD37C0CEB4C0526FA05F61C
:1024E00006F00706B6F1040C06D20EEB860CBDE82A
:1024F00070404CF0010C6047DFE80CF0090B020261
:102500004FF000414FF00000A1F5002170BD1946C9
:102510001046012851EB010418BFD4F5001484BF04
:10252000002001F0004170BD0808A0F500114FEA3D
:102530003101704753EA010C17D41CF5801F58BFB6
:10254000BCF5801F00F106808B4218BF704708BFA2
:102550008242704707D713F5801F58BF11F5801FBF
:1025600019D48B4270479B4270471CF5801F08D5D9
:10257000BCF5801FF7D5994218BF704708BF90423D
:1025800070474FF4001C1CEB430F38BF1CEB410F8E
:1025900001D2994270470FB40CBC03BCFFF76BBF6C
:1025A0005FEA410C5FEA5C5CACF580635B1C39D48C
:1025B000D3F1340240F34580B2F1200314DA4FF036
:1025C000010C0CFA02FCACF101030340B3EB5C021A
:1025D00020EA030008BF10EA0C0F98BF704710EB09
:1025E0000C0041F1000170470AD0C3F1200201FA4A
:1025F00002FC012821FA03F101FA03F14CF1000079
:102600004FF0010C0CFA03FCACF10103B0F1004FE8
:1026100021EA030108BF11EA0C0F4FF0000088BF48
:1026200061447047B3F1FF3F28BF50EAC12C01F06D
:1026300000414FF0000084BF41F07C5141F4700133
:102640007047B3F5806FB8BF704770B5FFF71EFFD6
:1026500040DBB6BE91EA030F10B581F000413FF5B3
:10266000E7AD83F0004300F009B8000010B591EA2F
:10267000030F48BF83F000433FF5DAAD841A71EBD6
:10268000030C07D212198CF0004C43EB0C03001B17
:1026900061EB0C01DFF8A4E14FEA1154A4EB135CE9
:1026A0001EEA430F18BF9EEA445F00F0B08023EAA1
:1026B0006E03524221EA0451C3EB6E0338BF5B1E26
:1026C000DCF1200E25D322FA0CFE10EB0E0043FAAB
:1026D0000CFE41EB0E01CCF1200E03FA0EFE10EBC6
:1026E0000E0051F10001CCF1200E29D412FA0EF2A5
:1026F00001EB0451BDE8104058BF7047401C1CBF9F
:10270000B2F1004F704700280CBF491C20F00100B7
:10271000704712EB020E43EB030218BF4FF0010E9D
:102720004EEA4202ACF1200CDCF11E0E54D943FA01
:102730000CFE10EB0E0051F1FF31CCF11E0ED5D581
:102740000EF1010E12FA0EFE404141EB010101EBC8
:10275000445C5FEA5C5C10D910EBDE7001EB045165
:1027600038BFBEF1004FBDE8104018BF70470028C9
:102770000CBF491C20F00100704730D24FEAD42C26
:1027800011F5001124F400641BD0B1FA81F20B3A68
:10279000A41AA41ED2F12003914030FA03F3194386
:1027A000904001EBCC71002C01EB0451BDE81040CE
:1027B000A8BF704701F1C0414FF0000001F0004197
:1027C0007047B0FA80F310FA03F100D110BDE41A9B
:1027D000173C4805C90AE4E701EB045110BD491054
:1027E00001EB0451BDE810404FEA300002E04FF029
:1027F000000170474A0008BF0042F8D0B2F5001F40
:1028000028BF704701F000414FF0000070479EEA7A
:10281000445F07D011EA5E0FBDE8104004BF0021FD
:1028200000207047BDE8104070B5FFF72FFE00BFD5
:1028300040DFF63E83F00041104670470000E0FFA5
:1028400043004FEAD30C4FEA3C0C43401FBF400704
:102850000CF1605113F0FE4F70471CF0006F03D174
:1028600000200CF0004170470CF0004343EA507028
:1028700010B540EACC0000F066F900BF00000092FD
:102880004FEA0001FFF750BE4FF000414FF000004B
:10289000A1F50021704700004FF47F0C1CEAD01214
:1028A0001EBF1CEAD11392EA0C0F93EA0C0F00F042
:1028B000858090EA010F48BF42F4807240F4000C1A
:1028C00041F400002CF07F4120F07F4000B58142B0
:1028D000A2EB03020FF2081CACEB504EC0F100005B
:1028E0009EF800E04FEA4E0E00FB0EFC38BF490098
:1028F0004FEA2C1C02F5FA020CFB0EF34FEACE1E37
:102900004FEA112C4FEAC1210EEB635E42EB2242EB
:102910000EFB0CFC4FEA1C5300FB03114FEA112C79
:102920004FEA01310EFB0CFC4FEADC4C00FB0C11B2
:10293000C14228BF09184CEB03335DF804EB10EBE0
:10294000410143EBC250B2F57C0F38BF704729D527
:1029500012F0F00F1CBF00F1C04000F000407047C3
:10296000008182838485868788898B8C8D8E8F9168
:102970009293959697999A9C9D9FA0A2A3A5A7A88C
:10298000AAACAEB0B2B3B5B7B9BCBEC0C2C5C7C9B8
:10299000CCCED1D4D7D9DCDFE2E6E9ECF0F3F7FA1C
:1029A000FE0000004FEA400C0CF1807CBCF17E4F31
:1029B00028BF7047B0F1C04000F00BB990EA010F9A
:1029C0000CEAD11348BF42F48072624538BF6345B8
:1029D00007D213F47F0F16D080EA010000F0004008
:1029E000704710B500F0AFF8097EFC3E00F005B866
:1029F00080EA010000F00040704780EA010000F02A
:102A0000004000F0E6B812F47F0F04BF02487047A0
:102A100080EA010000F0DDB80000C07FB0FA80F36A
:102A200010FA03F2C3F19D030AD0D90501EB12207D
:102A3000530638BF704700F1010008BF20F00100C5
:102A4000704700004FF47F0C1CEAD0121EBF1CEA36
:102A5000D11392EA0C0F93EA0C0F00F0478090EA32
:102A6000010F48BF42F480724FF0004C4CEA002046
:102A70004CEA012102EB0302A0FB0113A2F50002C4
:102A8000002918BF43F001035B0028BF4FEA33035E
:102A900042EB22425FEA132C4CEBC2502EBFBCEB40
:102AA000436FB2F57C0F70474FEA036CBCF1004FE7
:102AB00008BF20F00100B2F57C0F38BF70470BD57E
:102AC00082F0FF0212F5803FC8BF704700F1C0409E
:102AD000D8BF00F00040704700F5000C5FEA4C0CD6
:102AE00048BF7047B0F1C04000F073B890EA010FE2
:102AF0000CEAD11348BF42F48072624538BF634587
:102B000004D280EA010000F00040704710B500F0E8
:102B10001AF800BF8900013E00F007B800F009B8BC
:102B20005FEA410C5FEA1C6C08D080EA010000F00B
:102B300050B85FEA400C5FEA1C6CF6D14FF00040E1
:102B4000A0F5800070470EF1020E2EF0030E5EF825
:102B5000044B244204D44FEA4102B2F17F4F11D812
:102B60004FEA4003B3F17F4F0CD80ED14FEAD07C2F
:102B7000B2F17F4F0CEB4C0C0CF1020C08BF4CEB8C
:102B8000D17C04E04FF0080C01E04FEAD17C0CEB63
:102B90004C0324FA03F404F00704B4F1040C06D245
:102BA0000EEB840CBDE810404CF0010C6047DFE8F0
:102BB0000CF0070802024FF00040A0F5800010BDA5
:102BC0000846420018BFD2F1807288BF00F0004072
:102BD00010BDFF2141EAD050C0057047FDF738BD58
:102BE00002400000000000A00000000005400000BE
:102BF000000000C8000000000C4000000000409CE5
:102C000000000000194000000020BCBE00000000D1
:102C100034400000BFC91B8E00000004B540000016
:102C2000504BCFD06607E2CF010000006C4100009E
:102C30003E8251AADFEEA73401000000D942000015
:102C4000DCB5A0E23A301F97FFFFFFFFB44500005C
:102C5000FD25A0C8E9A3C14FFFFFFFFFFF3F000014
:102C60000000008000000000FF3F00000000008026
:102C700000000000B02C0008000000202800000028
:102C800028010008D82C0008280000207806000041
:102C9000440100081C00000043000000F8FFFFFF93
:102CA0000C0000000E0000000F0000002E000000CD
:102CB0000000000000000000000000000000000014
:102CC0000000000000A24A04000000000000000014
:082CD0000102030406070809D4
:04000005080001A945
:00000001FF
