:020000040800F2
:1000000088060020A1010008A9010008AB01000832
:10001000AD010008AF010008B101000800000000B8
:10002000000000000000000000000000B301000814
:10003000B501000800000000B70100088918000899
:10004000BB010008BB010008BB010008BB010008A0
:10005000BB010008BB010008BB010008BB01000890
:10006000BB010008BB010008BB010008BB01000880
:10007000BB010008BB010008BB010008BB01000870
:10008000BB010008BB01000841120008BB010008C9
:10009000BB010008BB010008BB010008BB01000850
:1000A000BB010008BB010008BB010008BB01000840
:1000B00031190008BB010008BB010008BB010008A2
:1000C000BB010008BB010008BB010008BB01000820
:1000D000BB010008BB010008BB010008BB01000810
:1000E000BB010008BB010008BB01000800F002F8DA
:1000F00000F047F80AA090E8000C82448344AAF17B
:100100000107DA4501D100F03CF8AFF2090EBAE878
:100110000F0013F0010F18BFFB1A43F0010318473B
:10012000BC1F0000DC1F0000103A24BF78C878C153
:10013000FAD8520724BF30C830C144BF04680C60ED
:10014000704700000023002400250026103A28BF35
:1001500078C1FBD8520728BF30C148BF0B60704739
:10016000662901F06F87002070471FB500F02AFB59
:1001700004000020002101F005FDE0601FBD10B566
:1001800010BD00F01FFC1146FFF7EFFF01F010FC5F
:1001900000F03DFC03B4FFF7F2FF03BC00F080FC6D
:1001A0000948804709480047FEE7FEE7FEE7FEE70B
:1001B000FEE7FEE7FEE7FEE7FEE7FEE70448054947
:1001C000054A064B70470000D1180008ED000008F2
:1001D0008800002088060020880200208802002075
:1001E0000FB41CB5074B06AA7B44694600900598DE
:1001F00000F0CFFA0020694600F0DEFA1CBC5DF882
:1002000014FB0000CD05000070B504468569006848
:10021000C10601D5302600E02026C00707D070BDFA
:10022000D4E9012130469047206A401C20626D1EAF
:10023000F6D570BD70B5044685690078C00707D152
:1002400070BDD4E9012120209047206A401C206223
:100250006D1EF6D570BD2DE9F0474FF0000A8946B6
:100260000446C0F820A02046E1688847002876D0E0
:10027000252806D0D4E901219047206A401C20623D
:10028000F1E7E168204600258847C4F81CA006462F
:100290000027C4F818A02A2E09D0304601F065FBCB
:1002A00038B304EB8708303EC8F8186019E059F8F5
:1002B000041B204604EB87029161E1688847012F07
:1002C000064618D1E069002820DA25F020051DE057
:1002D000D8F8180000EB800006EB40003038C8F872
:1002E00018002046E1688847064601F03EFB0028DA
:1002F000EED1012F0AD02E2E08D12046E168884782
:100300007F1C0646022F45F02005C4DBA0690028AB
:1003100003DA404245F00105A061E80701D025F06D
:100320001005B6B1A6F14100192802D8203645F4CF
:1003300000654A463146204625604D46FFF710FFCE
:1003400058B1012806D0ED1D25F0070000F108097D
:1003500089E704E005F1040985E730468AE7206A69
:10036000BDE8F08770477047704770472DE9FF4F31
:100370000C461E464FF0FF378BB0D2E90001DDF886
:1003800060800A908A46C1F30A5505B93D460021AE
:1003900008464FF00000BAF1000F00F4400005DA03
:1003A00000EB80004FF4400101EA50004FEA905901
:1003B000B9F1010F00DDB9460A9850EA4A000ED0A3
:1003C00044F61050A5F2FF3545432F14B8F1000F45
:1003D0001ED07542291E1EDDC9F100021CE0B8F1D5
:1003E000010F4FF0000001D0302103E0F24305E09F
:1003F0002154401CB042FBDB304600220021215436
:100400000B99C1F80880C1E900200FB0BDE8F08F5A
:10041000BD1B6D1CDEE74A4600DA694206A800F003
:100420005BFA06AB93E8070003AB83E8070050468E
:100430000A9900F03CFB8DE80700A0F500501F383A
:1004400000900398002D0ADD42F21F014A4608443D
:10045000002303A90390684600F0A5FD09E0A0F57C
:1004600000504A461F38002303A90390684600F055
:10047000AFFD8DE807000004000C03D04FF0FF3003
:10048000410800E01046B8F1000F03D000220092AE
:1004900015461EE0751E05D400F098F930326255FD
:1004A0006D1EF9D5B3460122084302D000227F1CFD
:1004B00004E02078302801D100227F1E002A09970D
:1004C00084D01DE0112D07DA00F080F9303262553A
:1004D0006D1C50EA0102F5D1084302D00098C8B162
:1004E0000EE00021681E05E0235C625C6354225428
:1004F000401E491C8142F7DBAB46A81B401E0990F9
:10050000002004F80B000B98099AC0F80880C0E995
:10051000002B7AE711264FF0000857E72DE9F04F3E
:1005200088460446D21D22F0070191B0D1E90001AE
:10053000CDE90A0101F005FA02460B98C00F01D07F
:100540002D2007E02068810701D52B2002E0202123
:1005500001EAC000032A099001D0072A05DB0346FF
:100560004146204600F078F90BE12078800601D55D
:10057000E06900E00620B8F1650F814606D0B8F1C9
:10058000660F18D0B8F1670F70D131E00020B9F1D3
:10059000110F009001DB112301E009F101030AAA08
:1005A00001A90CA8FFF7E2FEDDE90C70002609F1B5
:1005B0000105834647E001204B4600904FF000477D
:1005C0000AAA01A90CA8FFF7D1FEDDE90DB00C992C
:1005D0005D46002610B909F101000D18B9EB0500C0
:1005E00003D4C0F1FF3609F10105A5EB09002BE0AA
:1005F000B9F1010F01DA4FF001090020B9F1110F33
:100600000090484601DD112300E003460AAA01A933
:100610000CA8FFF7ABFEDDE90C704D4600268346C3
:10062000207800070AD4AB4500DA5D4601A8012D09
:1006300004DD411911F8011C302907D04F4502DAB9
:1006400017F1040F04DA012082460FE06D1EEEE779
:10065000002F02DCED1B3E4403E0781CA84200DDC5
:100660007D1CB81B00F1010A4FF0004720780007FD
:1006700003D4AA4501DB4FF0FF3A0021B7F1004F48
:100680000DF143088DF8431024D002202B23002FB6
:1006900001DA7F422D230A21021EA0F1010000DCB5
:1006A0005FB197FBF1FC97FBF1F201FB1C7C174655
:1006B0000CF1300C08F801CDEEE7A8F10100037051
:1006C0002188090501D5452100E06521A0F1010837
:1006D00000F8011C09980FA9A1EB0807FF1D00B144
:1006E0000120411901EBEA70A1693844081A401E43
:1006F000A0612078C00602D42046FFF785FD099846
:1007000028B1D4E901219047206A401C206220785A
:10071000C00622D52046FFF777FD1EE0002E04DB41
:10072000B34502DD01A8805D00E03020D4E901215D
:100730009047206A401C2062761CAAF101005FEA03
:10074000000A0AD100F03EF8C0680168405CD4E9B4
:1007500001219047206A401C2062281EA5F1010556
:10076000DCDC07E0D4E9012118F8010B9047206A8E
:10077000401C2062381EA7F10107F3DC2046FFF77A
:1007800059FD032011B041E601694A1C0261087855
:10079000704700B58FB0CDE90131002105910549C1
:1007A0007944CDE9031011466846FFF754FD0FB0B8
:1007B00000BD0000E5FFFFFF0A6802F8010B0A60B8
:1007C00070470000004870474800002030B5B0F185
:1007D0000A024FEA900E71F100034EEA817EB0EBFF
:1007E0000E0061EB91014FEA101E4EEA017E10EB04
:1007F0000E0041EB11114FEA102E4EEA016E10EB84
:100800000E0041EB11214FEA104E4EEA014E10EB63
:100810000E0041EB1141401841F100014FEAD000B8
:1008200040EA41704FEAD10110EB80054FEA8104A4
:1008300044EA907444EB01046D1944EB0404521B28
:10084000A3414FF0000348BF0A3200D530BD401C21
:1008500041F1000130BD00002DE9F0411F46044682
:1008600003260168072A01F4006004DB08B116A51D
:1008700005E016A503E008B115A500E015A521F0D7
:1008800010002060A069C01EA0610FB1401EA061D1
:100890002046FFF7B9FC4FB1D4E901213846904713
:1008A000206A401C2062C01C206206E0206AFAE731
:1008B000D4E9012115F8010B9047761EF8D22046A5
:1008C000FFF7B8FCBDE8F0814E414E006E616E004E
:1008D000494E4600696E66002DE9F047814616468E
:1008E0008AB0354878440DC88DE80D003248784408
:1008F000801C03AC0DC884E80D0041F69B30084411
:10090000372190FBF1F290FBF1F5A5F1800501FB99
:1009100012041B3C02D56442012000E00020DFF8F5
:1009200098A080460027FA44AAF1BE0A0EE0E0072C
:100930000AD03246684607EB470101230AEB8101E2
:1009400000F046FB8DE8070064107F1C002CEED100
:10095000194F7F44AE3F19E0E80715D007EB0410AC
:100960000DF1180A90E80E008AE80E00C068F04207
:1009700001D1981908903246012306A903A800F076
:1009800027FB03AB83E807006D10641C002DE3D147
:100990004FF0010332466946B8F1000F03A802D0B8
:1009A00000F001FB01E000F013FBC9E90001C9F808
:1009B00008200AB0BDE8F087DC1700000048704747
:1009C000280000207546FFF7F9FFAE46050069468E
:1009D000534620F00700854618B020B5FFF7EEFB20
:1009E000BDE820404FF000064FF000074FF0000830
:1009F0004FF0000B21F00701AC46ACE8C009ACE8B1
:100A0000C009ACE8C009ACE8C0098D46704710B514
:100A10000446AFF300802046BDE81040FFF7BABBA4
:100A20004FF0013C50F8042B51F8043B9A4221D17D
:100A3000A2EB0C03934313EACC1317D150F8042B09
:100A400051F8043B9A4215D1A2EB0C03934313EAED
:100A5000CC130BD150F8042B51F8043B9A4209D126
:100A6000A2EB0C03934313EACC13DBD04FF000004E
:100A7000704700BFD01A01BAB1FA81F101F0180134
:100A800022FA01F0CB40C1F12001DBB2C0B2C01AA2
:100A90002CFA01F3D11A914311EAC311E6D1704740
:100AA00001491820ABBEFEE72600020070475FEA4E
:100AB000400C08BF91F0000F4FEA8C234FEAC1228F
:100AC00043EA51514FEA1C5018BF00F5F0404FEA7D
:100AD000300018BF41F000415FEA6C5C00F02980F3
:100AE000BCF1FF3F08BF40F080407047130C06BFC9
:100AF00012044FF0100C4FF0000C130E04BF120242
:100B00000CF1080C130F04BF12010CF1040C930F2D
:100B100004BF92000CF1020CD30F04BF52000CF181
:100B2000010C11464FF00002A0F11F00A0EB0C00D9
:100B3000704711F0004F08BF704731F000413FF49B
:100B4000D5AF0B0C06BF09044FF0100C4FF0000C92
:100B50000B0E04BF09020CF1080C0B0F04BF0901B6
:100B60000CF1040C8B0F04BF89000CF1020CCB0FAD
:100B700004BF49000CF1010CCCF12003A0EB0C00E8
:100B800022FA03F302FA0CF241EA030100F1010038
:100B9000704720F07F4C80EA030023F07F47ACEBE6
:100BA000070303F57C5300F0004003F1FF032DE938
:100BB00080494FEA154B09B44FEA144325EA0B4E1E
:100BC00024EA03480FF2042606EB132749083E786F
:100BD0005FEA320203FB0667C7F5000707FB06F66C
:100BE0004FEA54374FEAD64606F1020607FB066C79
:100BF000CCF1005C4FEA1C472CEA074C07FB06F4DB
:100C00000CFB06F504EB15464FEA961634BF0020A0
:100C10004FF000404FEAD13706FB07FC4FEA1C4C6F
:100C20000CFB0BF7D21B03FB0CF761EB07010CFB72
:100C30000EF7B0EB074072EB17420CFB08F734BF1E
:100C4000A2EB0742B2EB074261EB17414FEA0C44BB
:100C50004FEA910706FB07FC4FEA1C4C0CFB0BF715
:100C6000B0EBC74072EB573203FB0CF734BFA2EB7B
:100C7000C742B2EBC74261EB57310CFB0EF7B0EB4A
:100C8000C70072EB57720CFB08F734BFA2EBC70228
:100C9000B2EBC70261EB5771039F4FEA816141EAF2
:100CA000921104EBCC044FEAD1374FEA826206FB83
:100CB00007FC42EA90124FEA80604FEA1C4C0CFBA2
:100CC0000BF7D21B03FB0CF761EB07010CFB0EF7D4
:100CD000B0EB074072EB17420CFB08F734BFA2EBF6
:100CE0000742B2EB074261EB17414FEA8C554FEADE
:100CF000910704EB9C2406FB07FC4FEA1C4C0CFB01
:100D00000BF7B0EBC74072EB573203FB0CF734BF65
:100D1000A2EBC742B2EBC74261EB57310CFB0EF7B7
:100D2000B0EBC70072EB57720CFB08F734BFA2EBB5
:100D3000C702B2EBC70261EB577115EB4C254FEAC6
:100D4000816141EA92114FEA82624FEAD13742EA69
:100D5000901206FB07FC44F100044FEA80604FEA62
:100D60001C4C0CFB0BF7D21B03FB0CF761EB0701D0
:100D70000CFB0EF7B0EB074072EB17420CFB08F7C9
:100D800034BFA2EB0742B2EB074261EB174115EB10
:100D90001C154FEA813141EA92414FEA823242EA20
:100DA00090424FEA80304FEA0C7644F1000448EA62
:100DB00003434EEA0B484FF0000EB2EB080C71EB08
:100DC000030724BF624639464EEB0E0E4FF0000B70
:100DD0000018524149414BEB0B0BB2EB080C71EB85
:100DE00003077BF1000B24BF624639464EEB0E0E23
:100DF0004FF0000B0018524149414BEB0B0BB2EB8B
:100E0000080C71EB03077BF1000B24BF62463946E7
:100E10004EEB0E0E51EA020718BF46F0010616EB24
:100E20000E7655F1000254F1000103D5BDE88901A9
:100E3000BDE80088BDE88901BDE80048B619524107
:100E400041EB0101A3F10103704780807F7E7D7C2F
:100E50007B7A7978777676757473727171706F6E4C
:100E60006E6D6C6C6B6A6A696868676666656464F7
:100E7000636362616160605F5F5E5E5D5D5C5C5B81
:100E80005B5A5A59595858575756565555555454F0
:100E9000535352525251515050504F4F4F4E4E4D4E
:100EA0004D4D4C4C4C4B4B4B4A4A4A49494948489A
:100EB00048474747474646464545454444444443DA
:100EC00043434342424242414141002B9C4630D47D
:100ED00077002BD01CB54FEA370703B44FF0100052
:100EE0004FF01001BAF1000F06D0BCF1000FDCBFCB
:100EF00040F0080040F008014FF000000FBCBDE8D2
:100F000010400BF1010BBBF1010F08BF5FEA17079F
:100F100022BF12F1010211F101014FF0004143F132
:100F2000000300F0004043EA00007047F9D357087F
:100F3000D0E746EA064613F1400F4FEA16461FDD9A
:100F400013F1200FDFBF16430A46002120335B4216
:100F5000BED0C3F1200746EA064602FA07F74FEA79
:100F6000164646EA0706C3F1200722FA03F201FA01
:100F700007F721FA03F14FF0000342EA0702A7E75F
:100F800046EA020646EA06464FEA164646EA0106E1
:100F9000BCBF46EA0646360C4FF000034FF0000295
:100FA0004FF0000194E72DE9804C9A46934670B4C7
:100FB00091E8380007C831EA400C48BF34EA430CD6
:100FC00003D5FFF7E6FDFFF780FFF0BCBDE8008C1E
:100FD0002DE9804C9A46934670B491E8380007C8D2
:100FE00010F0804F08BF13F0804F03D100F005F8D8
:100FF000FFF76BFFF0BCBDE8008C20F07F4780EA74
:10100000030023F07F4C07EB0C03A3F57C5300F0A7
:101010000040A3F1FE0392F0000F00F0B38095F0C2
:10102000000F00F077802DE901494FEA11404FEAA7
:10103000144621EA004800FB06FC24EA064708FBA8
:1010400006F607FB08F800FB07F718EB06484CEB21
:10105000164C4FEA124B18EB07484FEA15464CEB7B
:10106000174022EA0B4E0BFB06FC25EA06470EFB57
:1010700006F607FB0EFE0BFB07F71EEB064E4CEBCE
:10108000164C4FF000061EEB074E4CEB174B18EBBF
:101090000B0840F1000018EB0E0B58EB000840F174
:1010A00000008F1A4FF000013CBFC943661B14BFFC
:1010B000B5EB040C00213CBFC943F61B4FEA1744B3
:1010C0004EEA8E0E27EA04454FEA1C4704FB0762EE
:1010D0002CEA074C05FB07F70CFB05F604FB0CFCA0
:1010E00016EB074642EB174216EB0C4642EB1C424E
:1010F0001BEB060658EB0202414146EA9E0601D56B
:10110000BDE80189B619524141EB0101A3F1010388
:10111000BDE801894FEA14454FEA114724EA054624
:1011200021EA074C05FB07F406FB07F70CFB06F169
:1011300005FB0CFC11EB074144EB17444FEA124747
:1011400011EB0C4144EB1C4422EA074C05FB07F26F
:1011500006FB07F70CFB06F605FB0CFC16EB074637
:1011600042EB174216EB0C4642EB1C456A1854F151
:10117000000148BF7047B619524141EB0101A3F18C
:101180000103704795F0000F37D04FEA11424FEA44
:10119000144721EA024624EA074C02FB07F106FB4A
:1011A00007F70CFB06F402FB0CFC14EB074441EBC5
:1011B00017414FEA154714EB0C4441EB1C4125EA5B
:1011C000074C02FB07F506FB07F70CFB06F602FBD4
:1011D0000CFC16EB074645EB174516EB0C4645EBAA
:1011E0001C42121951F1000148BF7047B619524113
:1011F00041EB0101A3F1010370474FEA14454FEAA7
:10120000114724EA054621EA074C05FB07F106FBD6
:1012100007F70CFB06F24FF0000605FB0CFC12EB87
:10122000074241EB174112EB0C4251EB1C4148BF06
:101230007047921841EB0101A3F1010370470000D0
:101240000B48006820F00400094908600948C0689C
:1012500080F400500749C86005483C3000680649E2
:101260000880034840300068044908807047000047
:101270000024014000100140080000200A00002066
:101280004148006840F480204FF0E021C1F800019F
:101290003E48806940F004003C4988610846806906
:1012A00040F4007088610846406840F4404048605F
:1012B0003748006820F440603549086008460068F7
:1012C00020F440400860002032490860081D006892
:1012D00040F00400091D086000BF2E48001D006892
:1012E00000F004000028F8D02A48001D006840F0F3
:1012F00002002849091D08600846006840F4E040E3
:1013000008600846006840F400400860081F006854
:1013100040F08000091F08600846006840F48060C3
:1013200008600846006840F48070086019480C3076
:10133000006840F4E07017490C3108600846006806
:1013400040F46060086013483430006840F4801056
:101350001049343108600846006840F400600860B5
:101360000846006840F4C03008600A48001D006864
:1013700040F001000749091D08600846006840F474
:10138000001008607047000000E100E0001002401B
:10139000000801400424014001B5094800680949DA
:1013A000B0FBF1F00921B0FBF1F000994843009047
:1013B00000BF0098411E00910028FAD108BD00002E
:1013C0001400002040420F003848806940F00800B7
:1013D000364988613648006840F07F4034490860EB
:1013E0003248C06940F400103049C8610846C069FD
:1013F00000F400102F4908602F48008820F00100F9
:101400002D4908802C480C38008820F040002A49DB
:101410000C3908800846008820F0800008800846C3
:10142000008820F001000880081D008820F03F009F
:1014300040F02400091D08801F481430008820F067
:101440003F0040F00B001C4914310880081F008841
:101450004CF6FF71884348F21E01084416491031CA
:1014600008801548001F008848F2FF31884340F487
:1014700080401149091F08800F480C38008820F06F
:101480001A000D490C3908800846008840F0010018
:1014900008800846008840F480600880064800887C
:1014A00020F0FE0004490880704700000010024050
:1014B000000C01400C0000200C540040038823F471
:1014C00000630380038843F480630380038843F44C
:1014D0008073038000BF838A03F00103002BFAD0DE
:1014E000838A038A23F0FF031343038200BF838AA6
:1014F00003F00203002BFAD0838A038B038A23F0C4
:10150000FF030B43038200BF838A03F08003002B99
:10151000FAD0038843F400730380704770B5044623
:101520000D4615B1012D0FD105E044F080000021DA
:1015300000F0CAFA08E004F14001C9B241F08000AD
:10154000002100F0C1FA00BF00BF70BD70B50446B5
:10155000002505E0605D012100F0B6FA681CC5B207
:10156000605D0028F6D170BD10B504464E222146BC
:101570000148FFF7A3FF10BD0054004010B5322012
:1015800000F0FAF90020FFF7EFFF2849097821F071
:101590000201264A11700846FFF7E6FF642000F0BA
:1015A000EBF9032000F0B2FA41F29410FFF7F4FED9
:1015B000032000F0ABFA41F29410FFF7EDFE032098
:1015C00000F0A4FAC820FFF7E7FE022000F09EFA20
:1015D0000021282000F078FA0021082000F074FA99
:1015E000012000F0C9F90021012000F06DFA02206D
:1015F00000F0C2F90021062000F066FA012000F098
:10160000BBF900210C2000F05FFA0021022000F05D
:101610005BFA022000F0B0F90449097841F00801B2
:10162000024A11700846FFF79FFF10BD110000200D
:101630002E48806940F004002C4988610846C06942
:1016400040F00100C8612A48006820F00C002849D9
:1016500008600846006840F0880008600846006896
:1016600040F033000860C804008840F04000C9041E
:1016700008800846008B40F0600008830846008B15
:1016800040F4E04008830846008C40F011000884D4
:101690001C2000280DDB00BF00BF00F01F0201214D
:1016A00091404209920002F1E022C2F8001100BF0D
:1016B00000BF00BF4FF08040808940F002004FF033
:1016C000804188810846008A20F00200088208468E
:1016D000008A20F001000882B3200885C820888590
:1016E00063208886BD2008877047000000100240F4
:1016F0000008014010B500F057F810BD28480068F8
:1017000040F480302649086000BF2548006800206A
:101710000028FAD12348006820F010002149086011
:101720000846006840F0100008600846006820F095
:101730000300801C08601A48406820F0F000184937
:1017400048600846406820F4605048600846406899
:1017500020F4E06040F4806048600846406820F46F
:101760007C1040F4E81048600846006840F0807043
:10177000086000BF0A48006800F00070B0F1007F08
:10178000F8D10748406820F00300801C04494860F5
:1017900000BF0348406800F00C000828F9D17047EA
:1017A00000100240002002400CB500200190009083
:1017B0003348006840F480303149086000BF304849
:1017C000006800F4003000900198401C01900098DF
:1017D00018B90198B0F5A06FF1D12948006800F45C
:1017E000003010B10120009001E00020009000982E
:1017F000012843D12348006840F0100021490860C7
:101800000846006820F0030008600846006840F0C1
:10181000020008601A484068194948600846406854
:1018200048600846406840F4806048600846406868
:1018300020F47C1048600846406840F4E810486096
:101840000846006840F08070086000BF0C480068DF
:1018500000F000700028F9D00948406820F003002B
:10186000074948600846406840F00200486000BFF1
:101870000348406800F00C000828F9D10CBD0000B6
:1018800000100240002002400448006820B10348D4
:101890000068401E014908607047000004000020F5
:1018A0004FF0E020406900F07F40084908434FF0C6
:1018B000E02148610846806900F07F408861084661
:1018C000006940F007000861704700003F190100FF
:1018D00010B51348006840F001001149086008463F
:1018E0004068104908400E494860084600680E49A3
:1018F00008400B4908600846006820F48020086012
:101900000846406820F4FE0048604FF41F008860DD
:10191000FFF7F0FE4FF000600449086010BD0000C2
:10192000001002400000FFF8FFFFF6FE08ED00E0A7
:101930004FF08040008A20F002004FF08041088282
:101940007047490050EAC12018BF04204A0D18BF53
:1019500040F0010040F2FF72B2EB515F08BF40F06F
:101960000200012808BF0520704730380A2801D23C
:10197000012070470020704700B50246FFF7BEFE09
:10198000FFF78EFF4FF0E020806900F07F400649AE
:1019900008434FF0E02188610448026000BF03481B
:1019A00000680028FBD100BD3F19010004000020A1
:1019B00086B03748806940F0100035498861354865
:1019C000406840F40010334948600846406820F4FD
:1019D000400048600846006940F000500861FFF789
:1019E000F3FCFFF7CBFDFFF74BFCFFF721FE4FF0B9
:1019F0008040008840F001004FF080410880264878
:101A0000006840F40010244908603FE000210846C7
:101A1000FFF784FD21A0FFF799FD01210020FFF7CA
:101A20007DFD2148008800F0AFFA83461F4900F091
:101A3000E9F9824600F0BAF906461D4A1D4B00F04E
:101A4000B7F804460D461C48008800F09DFA83460E
:101A5000164900F0D7F9824600F0A8F90646144A64
:101A6000144B00F0A5F8804642460B4613A103A88C
:101A7000CDE90045FEF7B4FB03A8FFF767FD0121A0
:101A80000820FFF74BFD2820FFF776FFBEE7000098
:101A90000010024000100140082401405374726994
:101AA0006E672031000000000800002000F07F4534
:101AB000713D0AD7A3700A400A00002025332E3258
:101AC000662025332E32660070B504460D464DB9AA
:101AD0000D49097821F001010B4A11700846FFF702
:101AE00043FD08E00849097841F00101064A1170F8
:101AF0000846FFF739FD00262611304600F006F8AB
:101B0000204600F003F870BD1100002038B50446EF
:101B10002007040E1849097841EA0400FFF724FD64
:101B20001549097841F00401134A117041EA040093
:101B3000FFF71AFDC8200090104800681049B0FB5C
:101B4000F1F00099484342F22831B0FBF1F00090E7
:101B500000BF00BF0098411E00910028FAD100BFCD
:101B60000549097821F00401034A117041EA040093
:101B7000FFF7FAFC38BD000011000020140000201F
:101B800040420F0010B500290AD00878002807D07D
:101B900005487844FEF744FF002801D0002010BD1E
:101BA0000248784410BD00006A050000620500008C
:101BB000DFF848C170B51CEA111E1EBF1CEA1315E0
:101BC0009EEA0C0F95EA0C0F00F06F8081EA030487
:101BD00023EA4C134EEAD47E21EA4C1141F48011E1
:101BE00043F48013AE44A1FB024CA0FB0365AEF1AD
:101BF0007F7E361955EB0C05A1FB034C4CF100031D
:101C0000A0FB021C16EB0C06654153F100030942D0
:101C100018BF46F0010613F4007F0BD14FEA0331E1
:101C20004FEA0530340341EA155140EA16506FF08F
:101C300003020AE04FEAC3214FEAC520F40241EA59
:101C4000555140EA56506FF0020202EB2E4201EB72
:101C5000025585EACE710AD05FEA440C18BF24F021
:101C6000004450F1000041F1000120EAD47040F23C
:101C7000FE7C624500D270BDA84214BF4FF0804484
:101C80004FF04044002E08BF0024BEF1806FA8BF73
:101C9000A1F1C041BDE8704080F282804FF00000A9
:101CA00001F1C04101F0004170479EEA0C0F0CEABF
:101CB000131518BF95EA0C0F06D04FF0000081EA0B
:101CC000030E0EF0004170BD00F01CF88900013ECB
:101CD00000F007B800F009B84FEA430C5FEA5C5C1B
:101CE00008D081EA030100F05BB84FEA410C5FEADB
:101CF0005C5CF6D14FF00000014970470000FF071F
:101D00000000F87F0EF1020E2EF0030E5EF8046B59
:101D1000364205D4012A43EB030515F5001F12D8FE
:101D2000012841EB010C1CF5001F0CD80ED14FEA25
:101D3000D17C15F5001F0CEB4C0C0CF1020C08BF0C
:101D40004CEBD37C04E04FF0080C01E04FEAD37C6D
:101D50000CEB4C0526FA05F606F00706B6F1040C66
:101D600006D20EEB860CBDE870404CF0010C6047CB
:101D7000DFE80CF0090B02024FF000414FF00000C9
:101D8000A1F5002170BD19461046012851EB010450
:101D900018BFD4F5001484BF002001F0004170BDCD
:101DA0000808A0F500114FEA3101704743004FEADF
:101DB000D30C4FEA3C0C43401FBF40070CF160516D
:101DC00013F0FE4F70471CF0006F03D100200CF0A1
:101DD000004170470CF0004343EA507010B540EAF0
:101DE000CC0000F0E4F800BF000000924FEA0001D0
:101DF000FFF7D6BF4FF000414FF00000A1F50021E2
:101E0000704700004FF47F0C1CEAD0121EBF1CEA82
:101E1000D11392EA0C0F93EA0C0F00F0858090EA40
:101E2000010F48BF42F4807240F4000C41F40000FE
:101E30002CF07F4120F07F4000B58142A2EB0302ED
:101E40000FF2081CACEB504EC0F100009EF800E011
:101E50004FEA4E0E00FB0EFC38BF49004FEA2C1C27
:101E600002F5FA020CFB0EF34FEACE1E4FEA112CDC
:101E70004FEAC1210EEB635E42EB22420EFB0CFCEB
:101E80004FEA1C5300FB03114FEA112C4FEA0131BA
:101E90000EFB0CFC4FEADC4C00FB0C11C14228BFCE
:101EA00009184CEB03335DF804EB10EB410143EBF5
:101EB000C250B2F57C0F38BF704729D512F0F00F31
:101EC0001CBF00F1C04000F00040704700818283D9
:101ED0008485868788898B8C8D8E8F919293959639
:101EE00097999A9C9D9FA0A2A3A5A7A8AAACAEB0C3
:101EF000B2B3B5B7B9BCBEC0C2C5C7C9CCCED1D4C8
:101F0000D7D9DCDFE2E6E9ECF0F3F7FAFE000000F7
:101F10004FEA400C0CF1807CBCF17E4F28BF70472B
:101F2000B0F1C04000F089B890EA010F0CEAD1137B
:101F300048BF42F48072624538BF634507D213F44C
:101F40007F0F16D080EA010000F00040704710B506
:101F500000F02DF8097EFC3E00F005B880EA010093
:101F600000F00040704780EA010000F0004000F0FF
:101F700064B812F47F0F04BF0248704780EA010082
:101F800000F05BB80000C07FB0FA80F310FA03F2F3
:101F9000C3F19D030AD0D90501EB1220530638BFC7
:101FA000704700F1010008BF20F0010070470EF1FA
:101FB000020E2EF0030E5EF8044B244204D44FEAC6
:101FC0004102B2F17F4F11D84FEA4003B3F17F4F86
:101FD0000CD80ED14FEAD07CB2F17F4F0CEB4C0CF9
:101FE0000CF1020C08BF4CEBD17C04E04FF0080C64
:101FF00001E04FEAD17C0CEB4C0324FA03F404F02B
:102000000704B4F1040C06D20EEB840CBDE81040BA
:102010004CF0010C6047DFE80CF0070802024FF0BB
:102020000040A0F5800010BD0846420018BFD2F164
:10203000807288BF00F0004010BDFF2141EAD050FF
:10204000C0057047FEF76ABA02400000000000A019
:102050000000000005400000000000C80000000073
:102060000C4000000000409C0000000019400000EF
:102070000020BCBE0000000034400000BFC91B8E21
:1020800000000004B5400000504BCFD06607E2CFFF
:10209000010000006C4100003E8251AADFEEA7342F
:1020A00001000000D9420000DCB5A0E23A301F97E1
:1020B000FFFFFFFFB4450000FD25A0C8E9A3C14F05
:1020C000FFFFFFFFFF3F0000000000800000000056
:1020D000FF3F000000000080000000001821000801
:1020E000000000202800000028010008402100080E
:1020F0002800002060060000440100081C000000C9
:1021000043000000F8FFFFFF0C0000000E0000007D
:102110000F0000002E000000000000000000000082
:1021200000000000000000000000000000A24A04BF
:102130000000000000000000010203040607080977
:04000005080001A14D
:00000001FF
