:020000040800F2
:10000000680600208901000891010008930100089A
:100010009501000897010008990100080000000000
:100020000000000000000000000000009B0100082C
:100030009D010008000000009F0100085104000815
:10004000A3010008A3010008A3010008A301000800
:10005000A3010008A3010008A3010008A3010008F0
:10006000A3010008A3010008A3010008A3010008E0
:10007000A3010008A3010008A3010008A3010008D0
:10008000A3010008A3010008A3010008A3010008C0
:10009000A3010008A3010008A3010008A3010008B0
:1000A000A3010008A3010008A3010008A3010008A0
:1000B000F9040008A3010008A3010008A301000837
:1000C000A3010008A3010008A3010008A301000880
:1000D000A3010008A3010008A3010008A301000870
:1000E000A3010008A3010008A301000800F002F822
:1000F00000F03AF80AA090E8000C82448344AAF188
:100100000107DA4501D100F02FF8AFF2090EBAE885
:100110000F0013F0010F18BFFB1A43F0010318473B
:10012000EC0400000C050000103A24BF78C878C128
:10013000FAD8520724BF30C830C144BF04680C60ED
:10014000704700000023002400250026103A28BF35
:1001500078C1FBD8520728BF30C148BF0B60704739
:100160001FB51FBD10B510BD00F031F81146FFF7E7
:10017000F7FF00F0F3F900F04FF803B4FFF7F2FFD8
:1001800003BC00F057F800000948804709480047C1
:10019000FEE7FEE7FEE7FEE7FEE7FEE7FEE7FEE737
:1001A000FEE7FEE704480549054A064B7047000094
:1001B00099040008ED00000868000020680600208F
:1001C000680200206802002070477047704775463B
:1001D00000F02CF8AE4605006946534620F00700B3
:1001E000854618B020B5FFF7DDFFBDE820404FF091
:1001F00000064FF000074FF000084FF0000B21F011
:100200000701AC46ACE8C009ACE8C009ACE8C009DD
:10021000ACE8C0098D46704710B50446AFF30080C6
:100220002046BDE81040FFF7A8BF00000048704717
:100230000800002001491820ABBEFEE7260002009E
:10024000704700001B48806940F00400194988612C
:100250000846C06940F00100C8611748006820F0F6
:100260000C00154908600846006840F088000860E6
:100270000846006840F03300086040F20770C90487
:10028000088544F6206088854006008820F06000DC
:1002900008800846008B40F0600008830846008B09
:1002A00040F4E04008830846008C40F011000884C8
:1002B00070470000001002400008014010B500F037
:1002C00057F810BD2848006840F48030264908607F
:1002D00000BF2548006800200028FAD123480068A4
:1002E00020F01000214908600846006840F0100026
:1002F00008600846006820F00300801C08601A4867
:10030000406820F0F000184948600846406820F432
:10031000605048600846406820F4E06040F4806027
:1003200048600846406820F47C1040F4E8104860BB
:100330000846006840F08070086000BF0A48006806
:1003400000F00070B0F1007FF8D10748406820F05D
:100350000300801C0449486000BF0348406800F067
:100360000C000828F9D1704700100240002002401C
:100370000CB50020019000903348006840F48030B4
:100380003149086000BF3048006800F40030009038
:100390000198401C0190009818B90198B0F5A06F21
:1003A000F1D12948006800F4003010B1012000901C
:1003B00001E0002000900098012843D12348006804
:1003C00040F01000214908600846006820F0030052
:1003D00008600846006840F0020008601A4840685B
:1003E000194948600846406848600846406840F43B
:1003F000806048600846406820F47C1048600846E9
:10040000406840F4E81048600846006840F080709A
:10041000086000BF0C48006800F000700028F9D0A8
:100420000948406820F003000749486008464068D2
:1004300040F00200486000BF0348406800F00C0034
:100440000828F9D10CBD0000001002400020024035
:100450000448006820B103480068401E0149086054
:1004600070470000040000204FF0E020406900F0D9
:100470007F40084908434FF0E02148610846806901
:1004800000F07F4088610846006940F0070008617D
:10049000704700003F19010010B51348006840F094
:1004A00001001149086008464068104908400E499B
:1004B0004860084600680E4908400B490860084635
:1004C000006820F4802008600846406820F4FE00A0
:1004D00048604FF41F008860FFF7F0FE4FF00060A7
:1004E0000449086010BD0000001002400000FFF841
:1004F000FFFFF6FE08ED00E000B50948006940F096
:10050000005007490861642000F00CF84FF080406B
:10051000008A20F001004FF08041088200BD0000F9
:100520000010014000B50246FFF7CCFEFFF79CFF2C
:100530004FF0E020806900F07F40064908434FF00B
:10054000E02188610448026000BF03480068002879
:10055000FBD100BD3F19010004000020284880693C
:1005600040F01000264988612648406840F4001099
:10057000244948600846406820F440004860084626
:10058000006940F40050086162B61C2000280DDBB1
:1005900000BF00BF00F01F020121914042099200FC
:1005A00002F1E022C2F8001100BF00BF00BF4FF00F
:1005B0008050154908608000808940F001000907DB
:1005C00088811CE00F48006940F400500D49086123
:1005D0004FF4FA70FFF7A6FFFFF734FE4FF08040AC
:1005E000008840F001004FF0804108804FF46160C6
:1005F000088542F21070888644F638200887E1E7C3
:10060000001002400010014004E100E02C06000848
:10061000000000200800000028010008340600083F
:1006200008000020600600004401000800000000EF
:0406300000000000C6
:040000050800018965
:00000001FF
